:020000040000FA
:04000000A3EF3EF03C
:107D46000001C2EF3EF0000E816EF00E936E12003F
:107D56006E0E02D02EEC3FF0036E6E0E0318D8B4F2
:107D6600F9D703501200E00E816EF00E936E000EEE
:107D7600956E9490949294940F0EC16E1200B6EC88
:107D86003EF0A6EC3EF0E3EC3EF0ABEC3EF0046ECB
:107D96000450CFEC3EF0F9D7036E8B948B8003C072
:107DA6008CFF8B848B94020E026E040E016EBA0E4B
:107DB600E82EFED7012EFCD7022EFAD700D01200ED
:107DC600020E026E040E016EBA0EE82EFED7012ECA
:107DD600FCD7022EFAD700D08B948B903C0E8C6E7B
:107DE600020E026E040E016EBA0EE82EFED7012EAA
:107DF600FCD7022EFAD700D08B848B940F0E8C6E94
:107E0600020E026E040E016EBA0EE82EFED7012E89
:107E1600FCD7022EFAD700D08B848B94010E8C6E81
:107E2600020E026E040E016EBA0EE82EFED7012E69
:107E3600FCD7022EFAD700D08B848B94020E026EEA
:107E4600040E016EBA0EE82EFED7012EFCD7022EC6
:107E5600FAD700D012008A908A828A848A8681B8EC
:107E66000ED0020E026E040E016EBA0EE82EFED77A
:107E7600012EFCD7022EFAD700D0310E120081BA9D
:107E86000ED0020E026E040E016EBA0EE82EFED75A
:107E9600012EFCD7022EFAD700D0320E120081BC7A
:107EA6000ED0020E026E040E016EBA0EE82EFED73A
:107EB600012EFCD7022EFAD700D0330E12008A808C
:107EC6008A928A848A8681B80ED0020E026E040EC9
:107ED600016EBA0EE82EFED7012EFCD7022EFAD777
:107EE60000D0340E120081BA0ED0020E026E040EBD
:107EF600016EBA0EE82EFED7012EFCD7022EFAD757
:107F060000D0350E120081BC0ED0020E026E040E99
:107F1600016EBA0EE82EFED7012EFCD7022EFAD736
:107F260000D0360E12008A808A828A948A8681B8A8
:107F36000ED0020E026E040E016EBA0EE82EFED7A9
:107F4600012EFCD7022EFAD700D0370E120081BAC6
:107F56000ED0020E026E040E016EBA0EE82EFED789
:107F6600012EFCD7022EFAD700D0380E120081BCA3
:107F76000ED0020E026E040E016EBA0EE82EFED769
:107F8600012EFCD7022EFAD700D0390E12008A80B5
:107F96008A828A848A9681B80ED0020E026E040EF8
:107FA600016EBA0EE82EFED7012EFCD7022EFAD7A6
:107FB60000D02A0E120081BA0ED0020E026E040EF6
:107FC600016EBA0EE82EFED7012EFCD7022EFAD786
:107FD60000D0300E120081BC0ED0020E026E040ECE
:107FE600016EBA0EE82EFED7012EFCD7022EFAD766
:0A7FF60000D0230E12006E0E1200E0
:020000040020DA
:08000000FFFFFFFFFFFFFFFF00
:020000040030CA
:0E00000000051F1FFF8385FF0FC00FE00F409C
:00000001FF
