:020000040000FA
:0400000026EF3FF0B8
:107E4C00000138EF3FF0938A938C938E939893961E
:107E5C0093949392000E956E9490949294940F0E2A
:107E6C00C16E120029EC3FF05BEC3FF0A6EC3FF04A
:107E7C00046E6E0E0418D8B4F9D7045047EC3FF0DA
:107E8C00F5D7036E8B948B8003C08CFF8B848B9403
:107E9C00020E026E040E016EBA0EE82EFED7012EF3
:107EAC00FCD7022EFAD700D01200020E026E040E7E
:107EBC00016EBA0EE82EFED7012EFCD7022EFAD791
:107ECC0000D08B948B903C0E8C6E020E026E040EC6
:107EDC00016EBA0EE82EFED7012EFCD7022EFAD771
:107EEC0000D08B848B940F0E8C6E020E026E040EDF
:107EFC00016EBA0EE82EFED7012EFCD7022EFAD751
:107F0C0000D08B848B94010E8C6E020E026E040ECC
:107F1C00016EBA0EE82EFED7012EFCD7022EFAD730
:107F2C0000D08B848B94020E026E040E016EBA0E7E
:107F3C00E82EFED7012EFCD7022EFAD700D0120065
:107F4C008A888A968A948A9281AE04D081BEFED7A2
:107F5C00310E120081AC04D081BCFED7320E12005F
:107F6C0081AA04D081BAFED7330E12008A988A8671
:107F7C008A948A9281AE04D081BEFED7340E120050
:107F8C0081AC04D081BCFED7350E120081AA04D07E
:107F9C0081BAFED7360E12008A988A968A848A9203
:107FAC0081AE04D081BEFED7370E120081AC04D056
:107FBC0081BCFED7380E120081AA04D081BAFED73C
:107FCC00390E12008A988A968A948A8281AE04D0DD
:107FDC0081BEFED72A0E120081AC04D081BCFED724
:107FEC00300E120081AA04D081BAFED7230E1200E3
:047FFC006E0E1200F3
:020000040020DA
:08000000FFFFFFFFFFFFFFFF00
:020000040030CA
:0E00000000051F1FFF8385FF0FC00FE00F409C
:00000001FF
