:020000040000FA
:04000000DDEF3EF002
:107D7C00000E956E12008C84C80E00D0E82EFDD734
:107D8C008C941200FC006000DA00F2006600B60071
:107D9C00BE00E000FE00F6008C80C80E00D0E82E7D
:107DAC00FDD78C90C80E00D0E82EFDD71200900E97
:107DBC00F66E7D0EF76E000EF86E00EE1DF010EEF6
:107DCC0014F00900F5CFEEFFE550E150FAE10001A7
:107DDC00F0EF3EF0BEEC3EF0000E166E000E156E8F
:107DEC00000E186E000E176E000E1A6E000E196E35
:107DFC00000E1C6E000E1B6ED8901534D96E163406
:107E0C00DA6E1D0ED926000EDA22DECF01F0DDCFA0
:107E1C0002F0D8901734D96E1834DA6E1D0ED926AC
:107E2C00000EDA22DECF03F0DDCF04F0D890193447
:107E3C00D96E1A34DA6E1D0ED926000EDA22DECF78
:107E4C0005F0DDCF06F0D8901B34D96E1C34DA6EF9
:107E5C001D0ED926000EDA22DECF07F0DDCF08F09A
:107E6C0069EC3FF01A0E146EF80EE82EFED7142EA5
:107E7C00FCD700D01B4A1C2A1CBEBED71C5004E1E8
:107E8C000A0E1B5CD8A0B8D7194A1A2A1ABEB0D74A
:107E9C001A5004E1060E195CD8A0AAD7000E1A6E6F
:107EAC00000E196E174A182A18BEA2D7185004E1F2
:107EBC000A0E175CD8A09CD7000E186E000E176E19
:107ECC00154A162A95D7000E0D6E000E0C6E0CC0BE
:107EDC0009F001C00AF002C00BF0092A03D00B34E0
:107EEC000B320A32092EFBD7010E0A160A468C50A9
:107EFC000A18FD0B0A188C6ED2EC3EF00C4A0D2AB7
:107F0C000DBEE5D70D5004E1080E0C5CD8A0DFD7F0
:107F1C00000E0F6E000E0E6E0EC009F003C00AF0BC
:107F2C0004C00BF0092A03D00B340B320A32092E91
:107F3C00FBD7010E0A160A468C500A18FD0B0A18BC
:107F4C008C6ED2EC3EF00E4A0F2A0FBEE5D70F50C6
:107F5C0004E1080E0E5CD8A0DFD7000E116E000EE7
:107F6C00106E10C009F005C00AF006C00BF0092A0B
:107F7C0003D00B340B320A32092EFBD7010E0A1632
:107F8C000A468C500A18FD0B0A188C6ED2EC3EF087
:107F9C00104A112A11BEE5D7115004E1080E105CED
:107FAC00D8A0DFD7000E136E000E126E12C009F0AF
:107FBC0007C00AF008C00BF0092A03D00B340B32AF
:107FCC000A32092EFBD7010E0A160A468C500A18E3
:107FDC00FD0B0A188C6ED2EC3EF0124A132A13BE1B
:107FEC00E5D7135004E1080E125CD8A0DFD7C1EC22
:047FFC003EF0120041
:020000040020DA
:08000000FFFFFFFFFFFFFFFF00
:020000040030CA
:0E00000000051F1FFF8385FF0FC00FE00F409C
:00000001FF
