:020000040000FA
:04000000A7EF3DF039
:107B0C000F0EC16E180E956E12008C84C80E00D02C
:107B1C00E82EFDD78C941200FC006000DA00F20015
:107B2C006600B600BE00E000FE00F6008C80C80EB9
:107B3C0000D0E82EFDD78C90C80E00D0E82EFDD7D3
:107B4C001200240EF66E7B0EF76E000EF86E00EE31
:107B5C0029F010EE14F00900F5CFEEFFE550E150DE
:107B6C00FAE100EE3DF00C0EEE6AE806FDE10001D4
:107B7C00C7EF3EF0000E0B6E000E0A6E0AC007F047
:107B8C0001C008F002C009F0072A03D009340932F9
:107B9C000832072EFBD7010E081608468C50081821
:107BAC00FD0B08188C6E9CEC3DF00A4A0B2A0BBEA0
:107BBC00E5D70B5004E1080E0A5CD8A0DFD7000E05
:107BCC000D6E000E0C6E0CC007F003C008F004C064
:107BDC0009F0072A03D0093409320832072EFBD7E3
:107BEC00010E081608468C500818FD0B08188C6EF0
:107BFC009CEC3DF00C4A0D2A0DBEE5D70D5004E16E
:107C0C00080E0C5CD8A0DFD7000E0F6E000E0E6EA7
:107C1C000EC007F005C008F006C009F0072A03D013
:107C2C00093409320832072EFBD7010E0816084614
:107C3C008C500818FD0B08188C6E9CEC3DF00E4A0D
:107C4C000F2A0FBEE5D70F5005E1080E0E5CD8B019
:107C5C001200DED71200000E0D6E000E0C6E0CC062
:107C6C0009F001C00AF002C00BF0092A03D00B3452
:107C7C000B320A32092EFBD7010E0A160A468C501B
:107C8C000A18FD0B0A188C6E9CEC3DF00C4A0D2A60
:107C9C000DBEE5D70D5004E1080E0C5CD8A0DFD763
:107CAC00000E0F6E000E0E6E0EC009F003C00AF02F
:107CBC0004C00BF0092A03D00B340B320A32092E04
:107CCC00FBD7010E0A160A468C500A18FD0B0A182F
:107CDC008C6E9CEC3DF00E4A0F2A0FBEE5D70F5070
:107CEC0004E1080E0E5CD8A0DFD7000E116E000E5A
:107CFC00106E10C009F005C00AF006C00BF0092A7E
:107D0C0003D00B340B320A32092EFBD7010E0A16A4
:107D1C000A468C500A18FD0B0A188C6E9CEC3DF030
:107D2C00104A112A11BEE5D7115004E1080E105C5F
:107D3C00D8A0DFD7000E136E000E126E12C009F021
:107D4C0007C00AF008C00BF0092A03D00B340B3221
:107D5C000A32092EFBD7010E0A160A468C500A1855
:107D6C00FD0B0A188C6E9CEC3DF0124A132A13BEC4
:107D7C00E5D7135005E1080E125CD8B01200DED71F
:107D8C00120086EC3DF0000E166E000E156E000E05
:107D9C00186E000E176E000E1A6E000E196E20EE85
:107DAC001DF0050EDE6AE806FDE220EE23F0050E5E
:107DBC00DE6AE806FDE283A610D01D4A1E2A1EBE0E
:107DCC000CD01E5004E10A0E1D5CD8A006D01F4A30
:107DDC00202A000E1E6E000E1D6E83A810D0234AA2
:107DEC00242A24BE0CD0245004E10A0E235CD8A013
:107DFC0006D0254A262A000E246E000E236E000E95
:107E0C001C6E000E1B6ED8902734D96E2834DA6E97
:107E1C00290ED926000EDA22DECF01F0DDCF02F0DA
:107E2C00D8902534D96E2634DA6E290ED926000E58
:107E3C00DA22DECF03F0DDCF04F0D8902334D96EF4
:107E4C002434DA6E290ED926000EDA22DECF05F0A4
:107E5C00DDCF06F0C0EC3DF0D8901534D96E163459
:107E6C00DA6E290ED926000EDA22DECF01F0DDCF34
:107E7C0002F0D8901734D96E1834DA6E290ED92640
:107E8C00000EDA22DECF03F0DDCF04F0D8901934E7
:107E9C00D96E1A34DA6E290ED926000EDA22DECF0C
:107EAC0005F0DDCF06F0D8901B34D96E1C34DA6E99
:107EBC00290ED926000EDA22DECF07F0DDCF08F02E
:107ECC0031EC3EF0D8902734D96E2834DA6E290E76
:107EDC00D926000EDA22DECF01F0DDCF02F0D890E9
:107EEC001F34D96E2034DA6E290ED926000EDA2210
:107EFC00DECF03F0DDCF04F0D8901D34D96E1E34E4
:107F0C00DA6E290ED926000EDA22DECF05F0DDCF8F
:107F1C0006F0C0EC3DF08BEC3DF01D4A1E2A234AC6
:107F2C00242A1A0E146EF80EE82EFED7142EFCD747
:107F3C0000D01B4A1C2A1CBE66D71C5004E10A0E3A
:107F4C001B5CD8A060D724BE1AD0245004E10A0EC2
:107F5C00235CD8A014D0254A262A000E246E000ECD
:107F6C00236E26BE0CD0265004E10A0E255CD8A048
:107F7C0006D0000E266E000E256E274A282A1EBE3D
:107F8C001AD01E5004E10A0E1D5CD8A014D01F4A52
:107F9C00202A000E1E6E000E1D6E20BE0CD020502E
:107FAC0004E10A0E1F5CD8A006D0000E206E000E55
:107FBC001F6E214A222A194A1A2A1ABEFCD61A50B6
:107FCC0004E1060E195CD8A0F6D6000E1A6E000E4F
:107FDC00196E174A182A18BEEED6185004E10A0E6C
:107FEC00175CD8A0E8D6000E186E000E176E154A56
:047FFC00162AE1D68A
:020000040020DA
:08000000FFFFFFFFFFFFFFFF00
:020000040030CA
:0E00000000051F1FFF8385FF0FC00FE00F409C
:00000001FF
