:020000040000FA
:0400000017EF3FF0C7
:107E2800000E956E1200000154EF3FF08C84C80ECE
:107E380000D0E82EFDD78C9412008C80C80E00D09C
:107E4800E82EFDD78C90C80E00D0E82EFDD7120082
:107E5800000E076E000E066E06C003F001C004F0A7
:107E680002C005F0032A03D0053405320432032E7C
:107E7800FBD7010E041604468C500418FD0B041899
:107E88008C6E21EC3FF0064A072A07BEE5D707505B
:107E980004E1080E065CD8A0DFD71AEC3FF0120008
:107EA80014EC3FF0000E026EFC0E016E2CEC3FF05D
:107EB800060E096E130E086EAE0EE82EFED7082EBB
:107EC800FCD7092EFAD7000E026E600E016E2CEC5C
:107ED8003FF0060E096E130E086EAE0EE82EFED7A2
:107EE800082EFCD7092EFAD7000E026EDA0E016EA4
:107EF8002CEC3FF0060E096E130E086EAE0EE82E3F
:107F0800FED7082EFCD7092EFAD7000E026EF20E05
:107F1800016E2CEC3FF0060E096E130E086EAE0EC5
:107F2800E82EFED7082EFCD7092EFAD7000E026ECF
:107F3800660E016E2CEC3FF0060E096E130E086EED
:107F4800AE0EE82EFED7082EFCD7092EFAD7000E63
:107F5800026EB60E016E2CEC3FF0060E096E130E83
:107F6800086EAE0EE82EFED7082EFCD7092EFAD7DB
:107F7800000E026EBE0E016E2CEC3FF0060E096E6E
:107F8800130E086EAE0EE82EFED7082EFCD7092E6B
:107F9800FAD7000E026EE00E016E2CEC3FF0060ED2
:107FA800096E130E086EAE0EE82EFED7082EFCD70B
:107FB800092EFAD7000E026E01682CEC3FF0060E6F
:107FC800096E130E086EAE0EE82EFED7082EFCD7EB
:107FD800092EFAD7000E026EF70E016E2CEC3FF058
:107FE800060E096E130E086EAE0EE82EFED7082E8A
:087FF800FCD7092EFAD756D779
:020000040020DA
:08000000FFFFFFFFFFFFFFFF00
:020000040030CA
:0E00000000051F1FFF8385FF0FC00FE00F409C
:00000001FF
