:020000040000FA
:0400000087EF3EF058
:107CCC000F0EC16E180E956E12008C84C80E00D06B
:107CDC00E82EFDD78C941200FC006000DA00F20054
:107CEC006600B600BE00E000FE00F6008C80C80EF8
:107CFC0000D0E82EFDD78C90C80E00D0E82EFDD712
:107D0C001200E40EF66E7C0EF76E000EF86E00EEAE
:107D1C0021F010EE14F00900F5CFEEFFE550E15024
:107D2C00FAE1000157EF3FF0000E076E000E066EF1
:107D3C0006C003F001C004F002C005F0032A03D012
:107D4C00053405320432032EFBD7010E041604460B
:107D5C008C500418FD0B04188C6E7CEC3EF0064A1B
:107D6C00072A07BEE5D7075005E1080E065CD8B018
:107D7C001200DED71200000E0D6E000E0C6E0CC041
:107D8C0009F001C00AF002C00BF0092A03D00B3431
:107D9C000B320A32092EFBD7010E0A160A468C50FA
:107DAC000A18FD0B0A188C6E7CEC3EF00C4A0D2A5E
:107DBC000DBEE5D70D5004E1080E0C5CD8A0DFD742
:107DCC00000E0F6E000E0E6E0EC009F003C00AF00E
:107DDC0004C00BF0092A03D00B340B320A32092EE3
:107DEC00FBD7010E0A160A468C500A18FD0B0A180E
:107DFC008C6E7CEC3EF00E4A0F2A0FBEE5D70F506E
:107E0C0004E1080E0E5CD8A0DFD7000E116E000E38
:107E1C00106E10C009F005C00AF006C00BF0092A5C
:107E2C0003D00B340B320A32092EFBD7010E0A1683
:107E3C000A468C500A18FD0B0A188C6E7CEC3EF02E
:107E4C00104A112A11BEE5D7115004E1080E105C3E
:107E5C00D8A0DFD7000E136E000E126E12C009F000
:107E6C0007C00AF008C00BF0092A03D00B340B3200
:107E7C000A32092EFBD7010E0A160A468C500A1834
:107E8C00FD0B0A188C6E7CEC3EF0124A132A13BEC2
:107E9C00E5D7135005E1080E125CD8B01200DED7FE
:107EAC00120066EC3EF0000E166E000E156E000E03
:107EBC001C6E000E1B6E000E1E6E000E1D6E000E54
:107ECC00186E000E176E000E1A6E000E196E83A639
:107EDC0002D0174A182A83A802D0194A1A2A000E6F
:107EEC00206E000E1F6ED8901934D96E1A34DA6ECB
:107EFC00210ED926000EDA22DECF01F0DDCF02F002
:107F0C009AEC3EF0D8901734D96E1834DA6E210EF4
:107F1C00D926000EDA22DECF01F0DDCF02F09AEC8A
:107F2C003EF0D8901534D96E1634DA6E210ED9265F
:107F3C00000EDA22DECF01F0DDCF02F0D8901B3438
:107F4C00D96E1C34DA6E210ED926000EDA22DECF61
:107F5C0003F0DDCF04F0D8901D34D96E1E34DA6EE8
:107F6C00210ED926000EDA22DECF05F0DDCF06F089
:107F7C00D8901F34D96E2034DA6E210ED926000E1B
:107F8C00DA22DECF07F0DDCF08F0C1EC3EF06BEC6F
:107F9C003EF01A0E146EF80EE82EFED7142EFCD7F7
:107FAC0000D01F4A202A20BE9ED7205004E10A0E82
:107FBC001F5CD8A098D71D4A1E2A1EBE88D71E50FB
:107FCC0004E1060E1D5CD8A082D7000E1E6E000EBA
:107FDC001D6E1B4A1C2A1CBE7AD71C5004E10A0ECB
:107FEC001B5CD8A074D7000E1C6E000E1B6E154ABD
:047FFC00162A6DD7FD
:020000040020DA
:08000000FFFFFFFFFFFFFFFF00
:020000040030CA
:0E00000000051F1FFF8385FF0FC00FE00F409C
:00000001FF
