:020000040000FA
:04000000DDEF04F03C
:100800000074E12064616E646F206C6F6F70005340
:0D081000616D75656C20416C7665730000AC
:10081E00020E026E040E016EBA0EE82EFED7012EE7
:10082E00FCD7022EFAD700D08B948B903C0E8C6E98
:10083E00020E026E040E016EBA0EE82EFED7012EC7
:10084E00FCD7022EFAD700D08B848B940F0E8C6EB1
:10085E00020E026E040E016EBA0EE82EFED7012EA7
:10086E00FCD7022EFAD700D08B848B94010E8C6E9F
:10087E00020E026E040E016EBA0EE82EFED7012E87
:10088E00FCD7022EFAD700D08B848B94020E026E08
:10089E00040E016EBA0EE82EFED7012EFCD7022EE4
:1008AE00FAD700D0120005C001F006C002F084ECA9
:1008BE0004F001C009F002C00AF0000E0C6E000E2A
:1008CE000B6E10D00B500524076E0C500620086ED0
:1008DE0007C0F6FF08C0F7FF0800F550AFEC04F0B4
:1008EE000B4A0C2A09500B5C0C50800A076E0A50FA
:1008FE00800A0758D8B01200E5D701C003F002C035
:10090E0004F002D0014A022A01C0F6FF02C0F7FF2E
:10091E000800F5500009D8A4F5D70350015C016E0C
:10092E0004500258026E1200D5EC04F00FEC04F0E5
:10093E000F0E056E080E066E5AEC04F0C3EC04F0B2
:10094E00010E056E080E066E5AEC04F000EF00F074
:10095E00036E8B948B8003C08CFF8B848B94020E62
:10096E00026E040E016EBA0EE82EFED7012EFCD7D3
:10097E00022EFAD700D012008B90010E8C6E8B8453
:10098E008B94020E026E040E016EBA0EE82EFED786
:10099E00012EFCD7022EFAD700D01200000E956E53
:1009AE009490949294940F0EC16E1200000EF86EF5
:0A09BE00080EF76E00019BEF04F035
:020000040020DA
:08000000FFFFFFFFFFFFFFFF00
:020000040030CA
:0E00000000051F1FFF8385FF0FC00FE00F409C
:00000001FF
