:020000040000FA
:0400000075EF3FF069
:107EC2003031303030303031959095820F0EC16EA6
:107ED200120065EC3FF083B2FED7B3EC3FF00E6EBA
:107EE2000E5088EC3FF0F7D7C20EF66E7E0EF76E9C
:107EF200000EF86E00EE0FF010EE08F00900F5CF5C
:107F0200EEFFE550E150FAE100016AEF3FF0036E47
:107F12008C80000E026E080E016E8C90EE0E00D068
:107F220000D0E82EFCD710D003B002D08C9001D044
:107F32008C80D8900330036EEE0E00D000D0E82E75
:107F4200FCD70106D8A0020602BE05D00250ECE121
:107F52000104D8B0E9D78C80EE0E00D000D0E82E14
:107F6200FCD7120020EE0FF010EE01F0070EDBCF6F
:107F7200E3FFE806FCE2A60E00D0E82EFDD700D013
:107F8200EE0E00D000D0E82EFCD7000E0A6E070ECF
:107F9200096E010E0924D96E000E0A20DA6E83A240
:107FA20002D0010E01D0000EDF6EE70E00D000D02D
:107FB200E82EFCD700D000F00906D8A00A060AAEC7
:107FC200E8D7000E0D6E000E0C6E000E0B6E0D50FB
:107FD2000D240D6E010E0B24D96E000E0C20DA6EEC
:107FE200DF500D240D6E0B4A0C2A0CBEF0D70C503C
:0E7FF20004E1080E0B5CD8A0EAD70D50120077
:020000040020DA
:08000000FFFFFFFFFFFFFFFF00
:020000040030CA
:0E00000000051F1FFF8385FF0FC00FE00F409C
:00000001FF
